:020000040800F2
:1000000070080020710400087502000877020008DB
:100010007B0200087F020008830200080000000045
:10002000000000000000000000000000870200083F
:1000300089020008000000008B0200088D02000801
:100040008B0400088B0400088B0400088B04000854
:100050008B0400088B0400088B0400088B04000844
:100060004F0800088B0400088B0400088B0400086C
:100070008B0400088B0400088B0400088B04000824
:100080008B0400088B0400088B0400088B04000814
:100090008B0400088B0400088B0400088B04000804
:1000A0008B0400088B0400088B0400088B040008F4
:1000B000F70800088B0400088B0400088B04000874
:1000C0008B0400088B0400088B0400088B040008D4
:1000D0008B0400088B0400088B0400088B040008C4
:1000E0008B0400088B0400088B04000800F002F861
:1000F00000F03FF80AA090E8000C82448344AAF183
:100100000107DA4501D100F034F8AFF2090EBAE880
:100110000F0013F0010F18BFFB1A43F0010318473B
:10012000B82E0000D82E0000103A24BF78C878C13D
:10013000FAD8520724BF30C830C144BF04680C60ED
:10014000704700000023002400250026103A28BF35
:1001500078C1FBD8520728BF30C148BF0B60704739
:10016000642902F03F86002070471FB51FBD10B5FF
:1001700010BD02F0FFFE1146FFF7F7FF00F008F890
:1001800002F01DFF03B4FFF7F2FF03BC00F000FA1A
:100190000EB500F08DF900F0F5F94FF4E13000F004
:1001A00005FA00F0EFFA00F01CFC00F033FD4721E7
:1001B00040F2E73000F072FB00F012FB01201B4917
:1001C000087002201A49087003201A490870042098
:1001D0001949087005201949087006201849087047
:1001E00023E01848007800B31748007817490978C9
:1001F000174A1278CDE90021029016480378164874
:1002000002781648017816A002F0ACFD00201349D0
:100210000870114908700F4908700D4908700B49A2
:1002200008700949087007490870DAE75001002092
:100230007001002090010020B0010020D0010020BA
:10024000F00100201E0000203001002010010020DD
:10025000F0000020D0000020B0000020900000201E
:10026000256409256409256409256409256409258F
:10027000640A0000704700BFFEE700BFFEE700BF52
:10028000FEE700BFFEE77047704770477047000009
:100290000CB50020019000906C48006840F480305C
:1002A0006A49086000BF6948006800F400300090A7
:1002B0000198401C0190009818B90198B0F5A06F02
:1002C000F1D16248006800F4003010B101200090C4
:1002D00001E0002000900098012843D15C480068AC
:1002E00040F010005A4908600846006820F00300FA
:1002F00008600846006840F0020008605348406803
:10030000524948600846406848600846406840F4E2
:10031000806048600846406820F47C1048600846C9
:10032000406840F4E81048600846006840F080707B
:10033000086000BF4548006800F000700028F9D050
:100340004248406820F00300404948600846406841
:1003500040F00200486000BF3C48406800F00C00DC
:100360000828F9D10CBD10B5FFF792FF10BD10B5EC
:100370003648006840F0010034490860084640688B
:10038000344908403149486008460068324908400D
:100390002E4908600846006820F48020086008465E
:1003A000406820F4FE0048604FF41F008860FFF7AB
:1003B000DAFF4FF000602949086010BD10B5002138
:1003C00000200022214B5B6803F00C0121B10429BD
:1003D00006D0082928D107E0214B224C236027E0D2
:1003E0001F4B204C236023E0184B5B6803F4701014
:1003F000164B5B6803F48032022303EB904022B972
:10040000194B4343174C23600DE0104B5B6803F41A
:10041000003323B1144B4343124C236003E0104BD1
:100420004343104C236003E00D4B0E4C236000BF90
:1004300000BF064B5B68C3F303130C4CE15C094B34
:100440001B68CB40074C236010BD00000010024029
:10045000002002400000FFF8FFFFF6FE08ED00E07C
:1004600000127A000000002000093D000400002076
:100470000948804709480047FEE7FEE7FEE7FEE738
:10048000FEE7FEE7FEE7FEE7FEE7FEE70448054974
:10049000054A064B704700006F030008ED00000896
:1004A00070020020700800207004002070040020FA
:1004B00010B56FF0040000F08EFD2E4800682E4944
:1004C000B0FBF1F02D4908700846007800EB4001C0
:1004D000C1EBC0104FF6FF7101EAC0002849088047
:1004E00010BD0146254A12784A434FF0E0235A6175
:1004F00000229A611A46126942F001021A6100BF95
:100500004FF0E022106900F001021AB100F48032CD
:10051000002AF5D04FF0E022126922F001024FF0DC
:10052000E0231A6100229A6170470146144A12883A
:100530004A434FF0E0235A6100229A611A46126939
:1005400042F001021A6100BF4FF0E022106900F092
:1005500001021AB100F48032002AF5D04FF0E022F7
:10056000126922F001024FF0E0231A6100229A6121
:10057000704700000000002000127A0014000020E4
:100580001600002010B54FF4A06000F0D5FC10BD9F
:1005900000BF704700BF794A128802F04002002A6B
:1005A000F9D0C2B2754B1B1D1A80704710B586B0CA
:1005B00004460121052001F0D7F80121880301F04C
:1005C000D3F86E4802F0C8F94FF40070ADF814008B
:1005D00018208DF8170003208DF8160005A968482B
:1005E00000F006FE4FF48060ADF8140004208DF892
:1005F000170005A9624800F0FBFD01940020ADF84A
:100600000800ADF80A00ADF80C00ADF810000C20A1
:10061000ADF80E0001A9594802F0E1F9012157484F
:1006200002F069FA06B010BD70B504460D4600BF71
:100630004021204602F03AFB0028F9D0A58070BD89
:10064000FEB507460D46002413E0204604EBD071AA
:10065000491035F82110C1F307210DF8041004EBFF
:10066000D071491015F82120611C0DF80120A01C43
:10067000C4B2062CE9DB55F8180F000E8DF8060001
:100680006868000C8DF807002889000A8DF80800BA
:10069000287B8DF80900287C8DF80A00287D183DFC
:1006A0008DF80B00AA213846FFF7BEFFAA21384675
:1006B000FFF7BAFF01213846FFF7B6FF0C21384695
:1006C000FFF7B2FF00240AE01DF804103846FFF7D8
:1006D000ABFF1DF804003044C6B2601CC4B20C2C41
:1006E000F2DB06F26110C6B231463846FFF79CFFD6
:1006F000FEBDF0B585B007460D46002413E0204648
:1007000004EBD071491035F82110C1F307210DF821
:10071000041004EBD071491015F82120611C0DF86C
:100720000120A01CC4B2122CE9DBAA213846FFF735
:100730007BFFAA213846FFF777FF02213846FFF7F3
:1007400073FF12213846FFF76FFF00240AE01DF8FF
:1007500004103846FFF768FF1DF804003044C6B2A5
:10076000601CC4B2122CF2DB06F5B470C6B231467E
:100770003846FFF759FF05B0F0BD000000380140D2
:100780000008014008B50121092000F0EDFF01211A
:10079000114800F0FEFD1020ADF800008DF80300B8
:1007A00003208DF8020069460C4800F021FD10215D
:1007B0000A4800F0CAFD08BD10B51021074800F036
:1007C000B7FD20B11021054800F0C1FD03E0102164
:1007D000024800F0BAFD10BD00023000000C0140DC
:1007E0001FB50121092000F0BFFF0420ADF80C0067
:1007F00048208DF80F0003208DF80E0003A9234830
:1008000000F0F6FC0421214800F09FFD02210120A8
:1008100000F004FE0420019000208DF808000C2058
:100820008DF8090001208DF80A0001A800F000FCF5
:1008300008208DF8000003208DF801008DF80200DB
:1008400001208DF80300684600F07BFB1FBD10B54A
:100850000F480078A0B104210C4800F05CFD78B985
:100860000C48007800F0A4FA0446002008490870FB
:100870000948007820B9402C02D1012006490870AF
:10088000FFF79AFF042000F04AFC10BD000C014065
:100890001F0000201D0000201E0000207FB505461F
:1008A0000C460121084600F06CFFADF80850ADF889
:1008B00004400020ADF80A00ADF8060001A94FF091
:1008C000804001F00FFA01221146900701F081FDEE
:1008D0001C208DF8000000208DF801008DF802002A
:1008E00001208DF80300684600F02BFB01218807EA
:1008F00001F054FD7FBD10B50121880702F017F803
:1009000078B30121880702F023F816480078401CCC
:100910001449087008460078052822DB002008707A
:1009200011480078E8B911480078401C0F49087058
:1009300008460078052801DD00200870FF212720E7
:1009400000F009F9FF21E12000F005F9FF21E22084
:1009500000F001F90548007800F09FF901200249F4
:10096000087010BD2C0000201F0000201D0000207A
:1009700010B50446454800884FF6C7710840434902
:100980000880084600882043088001213F4801F084
:100990001AF810BD70B50546002405E0601CC4B20D
:1009A000C82C01DD002070BD0221384801F08FF80D
:1009B0000028F3D02946354801F036F8002405E038
:1009C000601CC4B2C82C01DD0020ECE701212F48D7
:1009D00001F07DF80028F3D02C4801F027F8C0B2D0
:1009E000E1E700B587B0012141F2040000F0BCFE50
:1009F000A020ADF8180018208DF81B0003208DF8FA
:100A00001A0006A9224800F0F3FBA021204800F0BC
:100A10009CFC4020ADF8180004208DF81B0003203A
:100A20008DF81A0006A91A4800F0E2FB4021184888
:100A300000F08BFC0020ADF804004FF48270ADF89C
:100A400006000020ADF80800ADF80A00ADF80C0073
:100A50004FF40070ADF80E003820ADF81000002003
:100A6000ADF812000720ADF8140001A9074800F006
:100A700005FF0121054800F0A6FFFF20FFF78AFFD0
:100A80000820FFF775FF07B000BD000000300140EF
:100A9000000801402DE9F04107460D4616460121A8
:100AA000F74800F054FC3846FFF774FF002405E0D7
:100AB000FF20FFF76FFF2855601CC4B2B442F7DB7C
:100AC0000121EF4800F041FCBDE8F0812DE9F04143
:100AD00007460D4616460121E94800F038FC384625
:100AE000FFF758FF002404E0285DFFF753FF601C68
:100AF000C4B2B442F8DB0121E14800F026FCBDE8B5
:100B0000F0811CB5DFA103C9CDE9000105226946CA
:100B10003020FFF7DBFF002404E000200DF8040084
:100B2000601CC4B2052CF8DB052269461020FFF7D3
:100B3000B1FF002406E01DF80400A52800D003E062
:100B4000601CC4B2052CF6DB00BF052C01D00020D0
:100B50001CBD0120FCE770B505460C460121C848C4
:100B600000F0F5FB2846FFF715FF2046FFF712FFC0
:100B70000121C34800F0E9FB70BD70B504460121B6
:100B8000BF4800F0E4FB2046FFF704FFFF20FFF71B
:100B900001FF05460121BA4800F0D7FB284670BD89
:100BA00010B50720FFF7E9FF044621462720FFF78D
:100BB000D2FFFF21E120FFF7CEFFFF21E220FFF768
:100BC000CAFF0221AE4800F0C2FB3F212120FFF7FF
:100BD000C2FF3F212220FFF7BEFF11212420FFF793
:100BE000BAFF28212520FFF7B6FF0E212620FFF7A8
:100BF000B2FF3F213C20FFF7AEFF06213D20FFF76B
:100C0000AAFF4A212020FFF7A6FF02219C4800F0FE
:100C10009CFB10BD08B50121092000F0A5FD0320B3
:100C2000ADF8000010208DF8030003208DF80200BD
:100C30006946934800F0DCFA0321914800F085FBF7
:100C40000420ADF8000048208DF8030003208DF843
:100C5000020069468A4800F0CBFA0421884800F077
:100C600074FB4FF4FA70FFF760FC0FE0102184482A
:100C700000F06DFB4FF47A70FFF757FC10218048AD
:100C800000F063FB4FF47A70FFF74FFCFFF739FF7A
:100C90000028EBD0FFF784FF08BD10B50446022101
:100CA000774800F054FB062C7CD2DFE804F00317F1
:100CB0002B3F5367052275493020FFF707FF744922
:100CC00009782031C8B205227249FFF7FFFE724849
:100CD00002787249A020FFF7F9FE63E0052270490F
:100CE0003020FFF7F3FE6A4909782031C8B20522A7
:100CF0006C49FFF7EBFE6C4802786C49A020FFF7C7
:100D0000E5FE4FE005226A493020FFF7DFFE60492B
:100D100009782031C8B205226649FFF7D7FE664838
:100D200002786649A020FFF7D1FE3BE00522644926
:100D30003020FFF7CBFE564909782031C8B2052292
:100D40006049FFF7C3FE604802786049A020FFF7C2
:100D5000BDFE27E005225E493020FFF7B7FE4C4973
:100D600009782031C8B205225A49FFF7AFFE5A4828
:100D700002785A49A020FFF7A9FE13E0052258493E
:100D80003020FFF7A3FE424909782031C8B205227E
:100D90005449FFF79BFE544802785449A020FFF7BE
:100DA00095FE00BF00BF0221354800F0CEFA10BD0D
:100DB00070B505460720FFF7E0FE044621462720D0
:100DC000FFF7C9FE04F02000002857D004F04000CF
:100DD000002851D0062D4CD2DFE805F0030F1B2769
:100DE000333F6020FFF7C9FE41490870084602788A
:100DF00040496120FFF74EFE3BE06020FFF7BDFE5B
:100E00003D490870084602783C496120FFF742FEE0
:100E10002FE06020FFF7B1FE3949087008460278DC
:100E200038496120FFF736FE23E06020FFF7A5FE7A
:100E3000354908700846027834496120FFF72AFED8
:100E400017E06020FFF799FE3149087008460278E4
:100E500030496120FFF71EFE0BE06020FFF78DFE9A
:100E60002D490870084602782C496120FFF712FED0
:100E700000BF00BF402070BD2020FCE750E0000014
:100E8000000C0140A5A5A5A5A5000000320000208A
:100E9000690000202D0000202600002050010020C5
:100EA0003C000020370000202700002070010020B7
:100EB0004600002041000020280000209001002072
:100EC000500000204B00002029000020B00100202D
:100ED0005A000020550000202A000020D0010020E8
:100EE000640000205F0000202B000020F0010020A3
:100EF000200000209000002021000020B0000020F1
:100F000022000020D000002023000020F00000205C
:100F100024000020100100202500002030010020C6
:100F200004F0100028B1FF21E120FFF714FE10208B
:100F3000A1E700209FE7000031490143314A1160D9
:100F4000704770B5002100230F22C47804B32D4CE4
:100F5000246804F4E064C4F5E064210AC1F10403E8
:100F6000CA40447804FA03F184781440214309010B
:100F7000254C0678A155047804F01F050124AC40E7
:100F800005786D11AD0005F1E025C5F8004109E0D7
:100F9000047804F01F050124AC401C4D067876113E
:100FA00045F8264070BD1A4A0A400243154B1B1FE4
:100FB0001A60704739B1134A121D12680243114B6F
:100FC0001B1D1A6006E00F4A121D126882430D4B6A
:100FD0001B1D1A607047042808D14FF0E0210969F1
:100FE00041F004014FF0E022116107E04FF0E021F1
:100FF000096921F004014FF0E022116170470000FF
:101000000000FA050CED00E000E400E080E100E003
:1010100080FFFF1F002044490860091D0860091D6A
:101020000860091D086041483F4914310860704755
:1010300000213D498279002A3AD00A4612680368A5
:101040009A430B461A600A1D126803689A430B1DE7
:101050001A60027911440A6803681A430A60324A26
:101060000832126803689A432F4B08331A601A1D1E
:10107000126803689A432C4B0C331A604279102A89
:101080000ED11A1F126803681A43274B08331A60DF
:101090001A1D126803681A43234B0C331A600DE0C3
:1010A0002149427911440A6803681A430A6005E03D
:1010B000027911440A6803689A430A607047002164
:1010C000016001710C214171002181717047164945
:1010D000103109680143144A10321160704701460B
:1010E0000020114A143212680A400AB1012000E0BF
:1010F000002070470C4914310860704701460020F9
:101100000022094B1B6803EA0102074B14331B68DA
:101110000B4013B10AB1012000E0002070470249E2
:10112000143108607047000000040140FFFF0F0009
:1011300010B50446CC48844208D10121042000F0B7
:101140002DFB0021042000F029FB46E0C748844223
:1011500008D10121082000F021FB0021082000F027
:101160001DFB3AE0C248844208D10121102000F062
:1011700015FB0021102000F011FB2EE0BD48844239
:1011800008D10121202000F009FB0021202000F0DF
:1011900005FB22E0B848844208D10121402000F03C
:1011A000FDFA0021402000F0F9FA16E0B34884422D
:1011B00008D10121802000F0F1FA0021802000F008
:1011C000EDFA0AE0AE48844207D10121801500F013
:1011D000E5FA0021A01500F0E1FA10BD10B50121DB
:1011E000084600F0DBFA0021012000F0D7FA10BD1C
:1011F0002DE9F041024600250026002000230024AE
:10120000002791F803C00CF00F0591F803C00CF013
:10121000100CBCF1000F03D091F802C04CEA050598
:1012200091F800C0BCF1000F31D0146800202BE011
:101230004FF0010C0CFA00F3B1F800C00CEA030601
:101240009E4220D183004FF00F0C0CFA03F7BC43F1
:1012500005FA03FC4CEA040491F803C0BCF1280F22
:1012600006D14FF0010C0CFA00FCC2F814C00AE0E1
:1012700091F803C0BCF1480F05D14FF0010C0CFAF6
:1012800000FCC2F810C0401C0828D1D31460B1F88B
:1012900000C0BCF1FF0F34DD546800202EE000F1E7
:1012A000080C4FF0010808FA0CF3B1F800C00CEA82
:1012B00003069E4221D183004FF00F0C0CFA03F776
:1012C000BC4305FA03FC4CEA040491F803C0BCF1EA
:1012D000280F05D100F1080C08FA0CF8C2F81480A8
:1012E00091F803C0BCF1480F07D100F1080C4FF092
:1012F000010808FA0CF8C2F81080401C0828CED368
:101300005460BDE8F0814FF6FF71018002218170C9
:101310000421C17070470246002093680B400BB156
:10132000012000E0002070470146886880B27047C5
:1013300002460020D3680B400BB1012000E00020E2
:1013400070470146C86880B27047016170474161CB
:1013500070470AB1016100E041617047C1607047A8
:101360004FF480320A4382618161826182698269BD
:10137000704702460020434B18684FF680731840B0
:1013800040EA021008433F4B186070473E49C8616D
:101390007047F0B50A46002300240021002500F024
:1013A0000046B6F1004F02D1364EF16901E0354EEC
:1013B0007168C0F3034583B200F44016B6F5401FD0
:1013C00008D121F070612F4E766826F070662D4F9F
:1013D0007E6012E000F48016B6F5801F06D1032669
:1013E00006FA05F4A14341F0706106E0460D3601AE
:1013F00003FA06F6B14341F0706122B1460D3601A1
:1014000003FA06F6314300F00046B6F1004F02D170
:101410001C4EF16101E01B4E7160F0BD30B5002241
:101420008B071C0F0F2303FA04F2164B08338C10A2
:1014300053F824309343134C08348D1044F825306E
:1014400023468C1053F824308C07240F00FA04F440
:1014500023430C4C08348D1044F8253030BD0A4924
:10146000DC3108607047000000080140000C0140BA
:10147000001001400014014000180140001C014010
:10148000002001400000014000002042DF480068C9
:1014900040F00100DD49086008464068DC4908402A
:1014A000DA49486008460068DA490840D7490860C8
:1014B0000846006820F4802008600846406820F450
:1014C000FE0048604FF41F0088607047CF490968EC
:1014D00021F48031CD4A11601146096821F4802140
:1014E0001160B0F5803F03D0B0F5802F0ED106E03B
:1014F000C649096841F48031C44A116007E0C34914
:10150000096841F4A021C14A116000E000BF00BF9A
:10151000704710B501460022002300204A11012A1D
:1015200002D1BA4C236806E0022A02D1B74C236AE2
:1015300001E0B64C636A01F01F02012494401C4094
:101540000CB1012000E0002010BD38B50020009053
:101550000024002500BF3120FFF7DBFF054600987F
:10156000401C00900098B0F5A06F01D0002DF2D083
:101570003120FFF7CEFF08B1012400E0002420460F
:1015800038BD01460020A14A106820F0F80040EA6A
:10159000C10010607047A0490860704702460020F3
:1015A0009A4B586820F47C1042EA01031843974B89
:1015B0005860704798490866704701460020934A72
:1015C000506820F003000843506070478F4840681F
:1015D00000F00C007047014600208C4A506820F053
:1015E000F00008435060704701460020874A506869
:1015F00020F4E06008435060704701460020834AB1
:10160000506820F4605040EAC1005060704729B132
:101610007E4A527A02437D4B5A7204E07B4A527AE8
:1016200082437A4B5A7270477B49D83108607047C1
:1016300001460020754A506820F44040084350603D
:1016400070470021714A20321170704A82F82010D0
:10165000012802D004280AD104E001216B4A20327B
:10166000117005E00521694A2032117000E000BFC9
:1016700000BF70476949086070476449096A0143BF
:10168000624A11627047654944390860704730B555
:1016900000210022002400235C4D6D6805F00C0140
:1016A00021B1042905D0082923D105E05C4D05604E
:1016B00022E05B4D05601FE0544D6D6805F470122B
:1016C000524D6D6805F48034022505EB92421CB939
:1016D000544D554305600BE04C4D6D6805F40035E5
:1016E0001DB1504D5543056002E04D4D5543056019
:1016F00002E04B4D056000BF00BF444D6D6805F032
:10170000F0010909484D6B5C0568DD4045603F4DBF
:101710006D6805F4E061090A434D6B5C4568DD4086
:1017200085603A4D6D6805F46051C90A3E4D6B5CA9
:101730004568DD40C560354D6D6805F44041890B55
:101740003A4D6B5CC568B5FBF3F5056130BD29B159
:101750002E4A526902432D4B5A6104E02B4A5269CA
:1017600082432A4B5A61704729B1284A9269024341
:10177000264B9A6104E0254A92698243234B9A6181
:10178000704729B1214AD2690243204BDA6104E053
:101790001E4AD26982431D4BDA61704729B11B4A48
:1017A000D2680243194BDA6004E0184AD2688243D7
:1017B000164BDA60704729B1144A12690243134B81
:1017C0001A6104E0114A12698243104B1A61704792
:1017D00012494039086070470F49C86470470B4987
:1017E000C87170470948406A40F0807007494862F4
:1017F000704701460020054A92680A400AB101205C
:1018000000E00020704701498872704700100240D4
:101810000000FFF8FFFFF6FE000042428004424253
:1018200000127A0000093D007B0000208B000020A0
:1018300010B50446BE48844208D101218014FFF748
:10184000ADFF0021A014FFF7A9FF16E0B9488442BC
:1018500008D101210014FFF7AEFF00212014FFF78B
:10186000AAFF0AE0B448844207D10121C013FFF760
:10187000A2FF0021E013FFF79EFF10BD10B500226C
:10188000028802F441520B884C8823438C882343FE
:10189000CC8823430C8923434C8923438C892343DD
:1018A000CC8923431A430280838B4FF2FF74234079
:1018B00083830B8A038210BD2DE9F04F85B0054666
:1018C0000C464FF0000902274FF000084FF0010BC3
:1018D0000026B246A88B4FF240010840A8830220A0
:1018E0002884B5F81C90A068022801D100BF38E018
:1018F000A08810B94FF0010B01E04FF0020B8D48AA
:10190000854200D100E000BF6846FFF7C0FEDDF869
:1019100000A0E088B0F5007F0AD14FEA1A2000EB62
:1019200080004000A168B0FBF1F0401D86B20BE0E2
:101930004FEA4B10BAFBF0F000EB80004000A168CA
:10194000B0FBF1F0401D86B20A20B6FBF0F606F0BF
:101950000108A6EB0800C0F34F074FF6FF7000EA3E
:101960000828022F01DBFF2F02DD02274FF00008BD
:10197000E08840EA080038432884A088A189084309
:10198000618808432188084340F4006040EA09095F
:10199000A5F81C9005B0BDE8F08F002101804180C2
:1019A0008180C180018141818181C18107210182C2
:1019B00070470021018041808180C18002218160C7
:1019C00000218181704721B1028842F040020280EB
:1019D00004E002884FF6BF731A400280704721B1BD
:1019E000828B42F48062828304E0828B4FF6FF3365
:1019F0001A408283704730B5002400230C11012562
:101A0000A540ABB21AB185881D43858002E0858868
:101A10009D43858030BD1AB183880B43838002E0EB
:101A200083888B4383807047818170470146888912
:101A300070474FF6FF62914204D0028842F48072F0
:101A4000028004E002884FF6FF631A40028070476C
:101A500021B1828842F00402828004E082884FF63D
:101A6000FB731A408280704702884FF2FF731A405E
:101A7000028002880A4302807047018841F4805145
:101A80000180704721B1028842F40052028004E0D4
:101A900002884DF6FF731A4002807047024600200C
:101AA000012901D0108B00E0908A70470146088A16
:101AB0007047B1F5804F04D1028842F48042028021
:101AC00004E002884BF6FF731A400280704702461A
:101AD000002013890B400BB1012000E0002070476B
:101AE000CA4302817047F0B502460020002400235B
:101AF000002501F00F070126BE40B4B20B110126EC
:101B00009E40B3B2968806EA03051689264016B1B0
:101B10000DB1012000E00020F0BD10B5002201F061
:101B20000F040123A3409AB2D343038110BD0000E8
:101B30000030014000380040003C004010B5044631
:101B4000FE48844208D10121C014FFF727FE00217E
:101B5000E014FFF723FEC4E0B4F1804F08D1012167
:101B60000846FFF728FE00210120FFF724FEB8E019
:101B7000F348844208D101210220FFF71CFE002116
:101B80000220FFF718FEACE0EE48844208D10121A4
:101B90000420FFF710FE00210420FFF70CFEA0E058
:101BA000E948844208D101210820FFF704FE002102
:101BB0000820FFF700FE94E0E448844208D10121A8
:101BC0001020FFF7F8FD00211020FFF7F4FD88E05A
:101BD000DF48844208D101212020FFF7ECFD0021DD
:101BE0002020FFF7E8FD7CE0DA48844208D101219B
:101BF0004014FFF7D3FD00216014FFF7CFFD70E024
:101C0000D548844209D10121C804FFF7C7FD00214E
:101C10004FF40020FFF7C2FD63E0D048844209D1B1
:101C200001210805FFF7BAFD00214FF48010FFF7EE
:101C3000B5FD56E0CA48844209D101214805FFF7A5
:101C4000ADFD00214FF40010FFF7A8FD49E0C548A5
:101C5000844208D101214020FFF7ADFD0021402042
:101C6000FFF7A9FD3DE0C048844208D10121802052
:101C7000FFF7A1FD00218020FFF79DFD31E0BB486B
:101C8000844208D101218015FFF795FD0021A015A0
:101C9000FFF791FD25E0B648844209D101210804EF
:101CA000FFF77CFD00214FF48030FFF777FD18E04F
:101CB000B048844209D101214804FFF76FFD00219B
:101CC0004FF40030FFF76AFD0BE0AB48844208D1C7
:101CD00001218804FFF762FD00214FF48020FFF707
:101CE0005DFD10BD00220288944B98420ED0994BA6
:101CF00098420BD0B0F1804F08D0914B984205D05C
:101D0000904B984202D0904B984204D14FF68F737B
:101D10001A404B881A438D4B984207D08C4B9842FF
:101D200004D04FF6FF431A40CB881A4302808B88B9
:101D300083850B880385814B98420BD0854B984255
:101D400008D08B4B984205D08A4B984202D08A4BE0
:101D5000984201D10B7A038601238382704770B5C4
:101D6000002400220023058C4FF6FE7635400584C2
:101D7000028C8388048B4FF68F752C40B51E2C4047
:101D80000D882C43751E2A400D892A434D882A430D
:101D90006A4DA8420BD06F4DA84208D0744DA8429E
:101DA00005D0744DA84202D0734DA84213D14FF60E
:101DB000F7752A404D892A434FF6FB752A408D88D6
:101DC0002A434FF6FF652B404FF6FF552B408D8978
:101DD0002B43CD892B4383800483CD888586028461
:101DE00070BD70B5002400220023058C4FF6EF76FD
:101DF00035400584028C8388048B48F6FF752C409F
:101E00004FF6FF452C400D884FF6FF7606EA052574
:101E10002C434FF6DF752A400D8906EA05152A4343
:101E20004D8806EA05152A43444DA84202D0494D83
:101E3000A8421DD14FF67F752A404D894FF6FF7697
:101E400006EA05152A434FF6BF752A408D8806EA33
:101E500005152A434FF6FF352B404FF2FF752B40F7
:101E60008D8906EA85052B43CD8906EA85052B4336
:101E700083800483CD880587028470BD70B50024FB
:101E800000220023058C4FF6FF6635400584028C46
:101E90008388848B4FF68F752C404FF6FC752C4051
:101EA0000D882C434FF6FF552A400D894FF6FF76DB
:101EB00006EA05252A434D8806EA05252A431F4DD3
:101EC000A84202D0234DA8421DD14FF2FF752A40EF
:101ED0004D894FF6FF7606EA05252A434FF6FF3572
:101EE0002A408D8806EA05252A434EF6FF752B40C9
:101EF0004DF6FF752B408D8906EA05152B43CD89DC
:101F000006EA05152B4383808483CD888587028468
:101F100070BD70B5002200230024058C4EF6FF76BC
:101F200035400584038C8488828B48F6FF752A40EF
:101F30004FF6FF452A400D8820E00000002C0140AC
:101F40000004004000080040000C00400010004069
:101F50000014004000340140004C0140005001409A
:101F60000054014000180040001C004000200040C8
:101F70000040014000440140004801404FF6FF7618
:101F800006EA05252A434DF6FF752B400D8906EA22
:101F900005352B434D8806EA05352B43FA4DA842FB
:101FA00002D0FA4DA84208D14BF6FF752C408D891E
:101FB0004FF6FF7606EA85152C4384808283CD8810
:101FC000A0F84050038470BD828B4FF2FF331A405B
:101FD0008283828B4FF6FF7303EA01231A438283C5
:101FE0007047F0B50C461546002200210026078CEC
:101FF0004EF6FF7C07EA0C070784828B018C4FF6B4
:10200000FF7707EA043640F6FF473A404FF6FF777E
:1020100007EA05273A434FF6FF7707EA03373A43C3
:10202000D94FB8420ED0D94FB8420BD0B0F1804F43
:1020300008D0D74FB84205D0D64FB84202D0D64FBD
:10204000B84206D14DF6FF77394046F48057394300
:1020500005E047F6FF57394044F4805739438283FF
:102060000184F0BD828B4FF6F3731A408283828B1A
:102070000A4382837047F0B50C46154600220021C2
:102080000026078C4FF6FF6C07EA0C070784828B4B
:10209000018C4FF6FF7707EA04264FF60C773A409B
:1020A0004FF6FF7707EA03172F433A43B64FB8427C
:1020B0000ED0B64FB8420BD0B0F1804F08D0B44F1D
:1020C000B84205D0B34FB84202D0B34FB84206D1A0
:1020D0004FF6FF57394046F48077394305E04FF219
:1020E000FF57394044F48077394382830184F0BD3F
:1020F000028B4FF2FF331A400283028B4FF6FF73BD
:1021000003EA01231A4302837047F0B50C461546D3
:10211000002200210026078C4FF6EF7C07EA0C070F
:102120000784028B018C4FF6FF7707EA041640F60E
:10213000FF473A404FF6FF7707EA03373A434FF637
:10214000FF7707EA05273A438F4FB8420ED08F4FEB
:10215000B8420BD0B0F1804F08D08D4FB84205D0B7
:102160008C4FB84202D08C4FB84206D14FF6DF7781
:10217000394046F01007394305E04FF65F773940A4
:1021800044F01007394302830184F0BD028B4FF6FF
:10219000F3731A400283028B0A4302837047F0B53F
:1021A0000C46154600220021068C4FF6FE773E4075
:1021B0000684028B018C4FF60C7632407E1C06EAB8
:1021C00003162E433243704EB0420ED06F4EB042D3
:1021D0000BD0B0F1804F08D06D4EB04205D06D4E9F
:1021E000B04202D06C4EB04206D14FF6FD7631407F
:1021F00044F00106314305E04FF6F576314044F0F6
:102200000106314302830184F0BD70B505460C46DA
:102210005D4885420ED05D4885420BD0B5F1804FB8
:1022200008D05B48854205D05A48854202D05A48BA
:10223000854200D100E000BF208850B92389A288E0
:1022400061882846FFF7ABFFE1882846FFF79EFF2D
:1022500025E0208804280AD12389A288618828469D
:10226000FFF753FFE1882846FFF742FF17E0208879
:1022700008280AD12389A28861882846FFF7FBFE37
:10228000E1882846FFF7EEFE09E02389A2886188ED
:102290002846FFF7A6FEE1882846FFF795FE70BDA9
:1022A0002DE9F04105460C4600260127608808B953
:1022B000022600E00026A088012801D1022700E0C4
:1022C00001272088A0B92389A28861882846FFF7C2
:1022D00066FFE1882846FFF759FF23893A463146D1
:1022E0002846FFF712FFE1882846FFF701FF13E0B9
:1022F0002389A28861882846FFF707FFE1882846DE
:10230000FFF7F6FE23893A4631462846FFF747FF96
:10231000E1882846FFF73AFFBDE8F0810A884B883C
:102320001A438B881A43CB881A430B891A434B896B
:102330001A438B891A43A0F8442070474FF6FF7167
:10234000818000210180C18041800172704700219D
:10235000018041808180C180018141818181C18171
:102360007047002101804180012181800021C180CE
:10237000018170470021018041808180C1800181FD
:102380004181818170470000002C014000340140F0
:102390000004004000080040000C004021B1028809
:1023A00042F00102028004E002884FF6FE731A40F8
:1023B0000280704731B1B0F8442042F40042A0F8E6
:1023C000442005E0B0F84420C2F30E02A0F84420F7
:1023D00070471AB183890B43838102E083898B4361
:1023E000838170478182704741EA0203A0F8483038
:1023F00070471AB183890B43838102E083898B4341
:102400008381704701894FF6F8721140018170474E
:102410000A46002101894FF68F731940114301814B
:10242000704730B504460D4629462046FFF7F0FFB9
:10243000208940F00700208130BD2DE9F04104469D
:102440000D4616461F46602D06D13B4601223146F9
:102450002046FFF75AFE05E03B4601223146204662
:10246000FFF79DFE29462046FFF7D2FF208940F066
:1024700007002081BDE8F08130B50C4600210189BC
:10248000C9B24FF6FF7505EA0325154325432943D5
:10249000018130BD2DE9F04105460E4617469846AC
:1024A000002443463A4631462846FFF7E5FF2C898B
:1024B0004FF6F870044044F007044FF68F70044064
:1024C00044F070042C81BDE8F081F0B504460D465F
:1024D00016461F463B46324629462046FFF7CCFFAC
:1024E000208940F480402081F0BD018582827047C0
:1024F0000A46002101884FF68F731940114301806D
:102500007047F0B50C4615461E46002100220023F8
:102510000189028B038C4FF6F877394021434FF63F
:10252000FC473A4040F201173A434FF6DD773B4013
:102530004FF6FF7707EA06172F433B4301810283DB
:102540000384F0BD0A460021018B4FF68F731940BA
:102550001143018370470A460021018B48F6FF733F
:1025600019404FF6FF7303EA0223194301837047B2
:102570000A460021818B4FF68F73194011438183E6
:1025800070470A460021818B48F6FF7319404FF6C9
:10259000FF7303EA022319438183704721B1028844
:1025A00042F08002028004E002884FF67F731A40F6
:1025B0000280704721B1828842F00402828004E0E8
:1025C00082884FF6FB731A408280704721B182885F
:1025D00042F00802828004E082884FF6F7731A40C6
:1025E0008280704721B1828842F00102828004E03B
:1025F00082884FF6FE731A40828070470A46002197
:10260000018B4FF6F77319401143018370470A4657
:102610000021018B4FF2FF7319404FF6FF7303EA5D
:1026200002231943018370470A460021818B4FF62C
:10263000F77319401143818370470A460021818B4B
:102640004FF2FF7319404FF6FF7303EA0223194359
:10265000818370470A460021018B4FF6FB731940B6
:102660001143018370470A460021018B4FF6FF3367
:1026700019404FF6FF7303EA0223194301837047A1
:102680000A460021818B4FF6FB7319401143818369
:1026900070470A460021818B4FF6FF3319404FF6F1
:1026A000FF7303EA02231943818370470A4600211E
:1026B000018B4FF67F7319401143018370470A461F
:1026C0000021018BC1F30E014FF6FF7303EA0223D1
:1026D0001943018370470A460021818B4FF67F73AF
:1026E00019401143818370470A460021818BC1F351
:1026F0000E014FF6FF7303EA0223194381837047EB
:102700000A460021018C4FF6FD73194011430184E4
:1027100070470A460021018C4FF6F77319401143A8
:10272000018470470A460021018C4FF6DF7319407F
:102730004FF6FF7303EA02131943018470470A46F8
:102740000021018C4FF67F7319404FF6FF7303EAA7
:1027500002131943018470470A460021018C4FF689
:10276000FF5319404FF6FF7303EA02231943018414
:1027700070470A460021018C4FF2FF7319404FF653
:10278000FF7303EA02231943018470470A460021BC
:10279000018C4DF6FF7319404FF6FF7303EA0233C5
:1027A00019430184704730B5002301248C40A3B243
:1027B000048C9C430484048C02FA01F5ADB22C43D2
:1027C000048430BD30B5002304248C40A3B2048CB3
:1027D0009C430484048C02FA01F5ADB22C430484BA
:1027E00030BD70B50346002000241846183001257E
:1027F0008D40ACB21D8CA5431D8409B1082909D1B7
:1028000000EB6100056825F070050560056815435B
:1028100005600EE00D1FC5F34E052844056825F43C
:10282000E045056005684FF6FF7606EA0226354367
:10283000056070BD21B1028842F00202028004E00E
:1028400002884FF6FD731A400280704721B102885A
:1028500042F00402028004E002884FF6FB731A4043
:102860000280704721B1828842F08002828004E0B9
:1028700082884FF67F731A408280704702884FF635
:10288000F7731A40028002880A43028070478288E8
:102890004FF68F731A40828082880A438280704785
:1028A00002894FF6F8731A40028102890A430281B5
:1028B000704702894FF67F731A40028102890A43EA
:1028C0000281704781847047818570478186704797
:1028D0000187704781877047A0F8401070470288D1
:1028E0004FF6FF431A40028002880A430280704775
:1028F0000146888E70470146088F70470146888FD1
:1029000070470146B1F8400070470146888C704717
:102910000146088D704702460020138A0B400BB118
:10292000012000E000207047CA430282704730B5A2
:102930000246002000230024158A05EA0103958938
:1029400005EA010413B10CB1012000E0002030BD04
:10295000CA4302827047000010B50446FB48844217
:1029600009D101218803FEF719FF00214FF48040AF
:10297000FEF714FF32E0F648844209D101214804F1
:10298000FEF719FF00214FF40030FEF714FF25E099
:10299000F048844209D101218804FEF70CFF002190
:1029A0004FF48020FEF707FF18E0EB48844209D17E
:1029B0000121C804FEF7FFFE00214FF40020FEF7BE
:1029C000FAFE0BE0E548844208D101210805FEF734
:1029D000F2FE00214FF48010FEF7EDFE10BD2DE950
:1029E000F04786B005460E460024A24600BFA14629
:1029F0000027B08900B100BF2F462C8A4CF6FF702B
:102A00000440F08804432C82AC894EF6F310044055
:102A1000B08831890843718908430443AC81AC8A8A
:102A20004FF6FF400440B0890443AC8201A8FEF792
:102A30002EFEC648874202D1DDF810A001E0DDF885
:102A40000CA0A88900F4004040B10AEBCA0000EBDA
:102A50000A1031684900B0FBF1F807E00AEBCA0040
:102A600000EB0A1031688900B0FBF1F86420B8FB74
:102A7000F0F004012009642101FB1089A88900F409
:102A8000004040B1322000EBC900B0FBF1F000F093
:102A90000700044308E0322000EB09106421B0FB7A
:102AA000F1F000F00F0004432C8106B0BDE8F08780
:102AB0004FF41651016000218180C18001810C21F9
:102AC000418100218181704710B502460020108AA3
:102AD0004FF2FF0318400B884C8823438C88234314
:102AE000CC8823431843108210BD0021018041800F
:102AF0008180C180704721B1828942F40052828175
:102B000004E082894DF6FF731A4082817047F0B568
:102B10000346002400260025002040F66A17B9422B
:102B200000D100BF1846C1F3421401F01F0601276F
:102B300007FA06F5012C01D10C3004E0022C01D17A
:102B4000103000E014301AB107682F43076002E02C
:102B50000768AF430760F0BD1AB1838A0B438382D5
:102B600002E0838A8B4383827047028A4FF6F073B8
:102B70001A400282028A0A430282704782894FF217
:102B8000FF731A40828182890A438281704721B192
:102B9000828942F00202828104E082894FF6FD734D
:102BA0001A4082817047028A4FF6DF731A40028210
:102BB000028A0A430282704721B1028A42F48042AB
:102BC000028204E0028A4BF6FF731A4002827047C9
:102BD000C1F308028280704701468888C0F308006C
:102BE0007047818941F0010181817047028BD2B227
:102BF0000283028B42EA012202837047028B02F4B5
:102C00007F420283028B0A430283704721B1828A8A
:102C100042F02002828204E0828A4FF6DF731A407B
:102C20008282704721B1828A42F01002828204E0DF
:102C3000828A4FF6EF731A408282704721B1828AEE
:102C400042F00802828204E0828A4FF6F7731A404B
:102C50008282704721B1828942F40042828103E07E
:102C60008289C2F30E028281704721B1828A42F4C6
:102C70000062828204E0828A4FF2FF731A408282ED
:102C80007047828A4FF6FB731A408282828A0A4317
:102C90008282704721B1828A42F00202828204E07D
:102CA000828A4FF6FD731A408282704702460020E6
:102CB000B1F5007F00D100BF13880B400BB101209C
:102CC00000E00020704701F40072B2F5007F00D1EF
:102CD00000BFCA430280704770B50246002400233B
:102CE0000025002040F66A16B14200D100BFC1F3B2
:102CF000421501F01F03012606FA03F3012D02D14C
:102D00009689334006E0022D02D1168A334001E055
:102D1000968A33400C12012606FA04F416883440D1
:102D200013B10CB1012000E0002070BD10B50022ED
:102D3000002340F66A14A14200D100BF0A12012408
:102D40009440A3B2DC43048010BD00000038014071
:102D50000044004000480040004C0040005000404B
:102D6000704700000FB4044910B503AA029800F0A0
:102D7000D3F810BC5DF814FB180000202DE9F041D9
:102D80000E460446002020622046E168884730B3A2
:102D9000252805D0D4E901219047206A401CF2E79C
:102DA000E168204600278847050018D0A5F14100BA
:102DB000192802D820354FF40067324629462046AC
:102DC0002760FDF7CDF940B1012804D0F61D26F0AB
:102DD00007060836D8E7361DD6E72846DAE7206A20
:102DE000BDE8F0812DE9F041064600241068752900
:102DF000314616A510D0AFF30080002802DA404219
:102E000013A507E031688A0701D512A502E049073A
:102E100004D511A5012401E0AFF3008000210A22AE
:102E200006F1240709E0B0FBF2FCB0FBF2F302FB71
:102E30001C00303078541846491C0028F3D1234632
:102E40002A463046BDE8F04100F00CB80000000012
:102E50002D0000002B00000020000000704770478C
:102E6000704770472DE9F0470D4699469246044653
:102E700000F124080168880604D5E06921F01001FA
:102E8000216000E00120A84201DD471B00E000278F
:102E9000A1697A1902EB0900081AA0612078C0061E
:102EA00002D42046AFF30080002608E0D4E90121D7
:102EB0001AF806009047206A401C761C20624E4596
:102EC000F4DB2078C0060AD52046AFF3008006E088
:102ED000D4E9012130209047206A401C2062381E2E
:102EE000A7F10107F4DC07E0D4E9012118F8050097
:102EF0009047206A401C2062281EA5F10105F3DCE2
:102F00002046AFF300802078000602D50220BDE8FD
:102F1000F0870120FBE70000074B70B50D467B44AE
:102F200000F011F80446284600F020F810B14FF0E8
:102F3000FF3070BD204670BD73D6FFFF01694A1C8B
:102F400002610878704700B58FB0CDE901310021EA
:102F5000059105497944CDE9031011466846FFF70C
:102F60000DFF0FB000BD0000E5FFFFFF007B00F08C
:102F700080007047754600F02BF8AE4605006946A4
:102F8000534620F00700854618B020B5FDF77EFABD
:102F9000BDE820404FF000064FF000074FF000085A
:102FA0004FF0000B21F00701AC46ACE8C009ACE8DB
:102FB000C009ACE8C009ACE8C0098D46704710B53F
:102FC0000446AFF300802046BDE81040FDF7DAB8B4
:102FD0000048704710020020F82F00080000002071
:102FE00090000000280100088830000890000020B0
:102FF000E00700004401000800A24A0400000000AD
:103000000000000001020304060708090000000098
:1030100000000000000000002020202020202020B0
:1030200020202020000044332211004433221101CB
:103030004433221101443322110244332211024449
:103040003322110344332211034433221104443345
:103050002211044433221105443322110544332242
:10306000110A0B0C0D0E0F010305091121A8A9AAC5
:10307000ABACAD0000000001020304010203040632
:0830800007080902040608001C
:04000005080000ED02
:00000001FF
